:020000020000FC
:0200000071C0CD
:0200040033C007
:0200140042C0E8
:020018004CC0DA
:02001C0054C0CE
:10006C000F931F934F930027112744274FB70091ED
:10007C00070111E00127009307011CD15AD175D15A
:10008C00F8D007D14FBF4F911F910F9118950F9337
:10009C004F93002744274FB700E000936D004FBFEC
:1000AC004F910F9118952E9A269A5D9A559A5E9AB1
:1000BC00569A5F9A579AFFCF18950F934F93002734
:1000CC0044274FB700E00093B10000270093B20023
:1000DC004FBF4F910F91189508E00EBF0FEF0DBF5A
:1000EC0002E00093B00002E00093700007E003BF51
:1000FC0001E00DBB03E00093690004E0009368008D
:10010C0001E000936D0000E00093000100930101F9
:10011C000093020100930301009304010093050175
:10012C00009306010093070108E10093600006E4C8
:10013C0000936000459A3D98789400E4102E202E90
:10014C00602E3ED111272227A8951F3F21F038D1D0
:10015C0011D01395F9CF11272F3F11F02395F4CF20
:10016C00112722271CD085D094D0A4D0D6D0E1D092
:10017C00FCD0EACF0F931F9306B1007210E001136D
:10018C00001303D01F910F910895A895002704B96F
:10019C0005B94098389841983998F7CF08950F933E
:1001AC001F935F936F937F938F939F9300271127D8
:1001BC005527662777278827992701E003BF58988A
:1001CC00509A0DE70093B30004E00093B1008895BA
:1001DC00509801E000936D00889501E000936D004C
:1001EC008895112701E000936D00889501E000933C
:1001FC006D0088950DE10093B30002E00093B1000F
:10020C008895489901C00AC013950894551F661F1C
:10021C00771F881F991F183259F0E4CF13958894D3
:10022C00551F661F771F881F991F183209F0DECFE4
:10023C0001E000936D008895092F080F070F060F3A
:10024C00051769F477FB7F7700F90093060170932B
:10025C00000160930101909302018093030107E078
:10026C0003BF9F918F917F916F915F911F910F9120
:10027C0008950F9300275C98549800910701013062
:10028C0031F00091060100FF02C05C9A549A0F9164
:10029C0008950F9300274098389841983998009109
:1002AC000701013019F0399A419802C0389A4098E8
:1002BC000F9108950F931F932F933F934F935F9339
:1002CC0000271127222733274427552700910701A0
:1002DC00003029F0109102010091030104C010912B
:1002EC0000010091010143958894001F111F221FEA
:1002FC0010F02A3018F02A50089401C08894441F3A
:10030C00551F90F740930401209305015F914F9185
:10031C003F912F911F910F9108950F930027599A98
:10032C00519A00910401043610F0599851980F918C
:10033C0008950F931F932F933F9300271127222784
:10034C003327009104010A3018F00A502395FBCF93
:10035C00003019F001501395FBCF2295210F122E6E
:10036C003F912F911F910F910895FF93EF931F933E
:10037C000F934F923F92FF27EE271127002744241B
:10038C003324412C012D007F02950E94DF01132C98
:10039C00042D0F700E94DF01232C009105010E9497
:1003AC00DF01632C3F904F900F911F91EF91FF91C4
:1003BC000895F4E0E0E33324E00FF31D3490089546
:1003CC000F931F93002711270BB10F710BB90AB1B3
:1003DC000F71006E0AB9112D00E209D0122D00E444
:1003EC0006D0162D00E803D01F910F91089515B972
:1003FC0014B91BB11F71010F0BB904E10093B300C9
:10040C0001E00093B1008895112715B914B91BB1FF
:10041C001F711BB90CE10093B30001E00093B10014
:0E042C00889508953F065B4F666D7D077F6FD4
:00000001FF
